:10000000E7C0F5CB1BCC09C108C107C106C105C1BA
:1000100004C13BCC02C180CEB1CEFFC0FEC0FDC04A
:10002000FCC0FBC0FAC040402020080402021912A4
:10003000181415BB161117131A12BB7C04140911DE
:100040000B1F0C270D2F0E7E0F6C1169127D137A7A
:10005000146B157416751772187019711A5A2B4A89
:100060002F4D79157A3B7B347C237D327E217F5066
:100070008048812B82408310843A853886308728D7
:10008000882089188A378C3F8D5E9077017E0258D0
:1000900003120659071408110A8410761B661C0DFA
:1000A0001D5A1E291F7020692172227A236B247326
:1000B0002574266C2775287D29712A792C7B2D7C47
:1000C0002E0F3F453016311E32263325342E35365D
:1000D000363D373E384639523A413B4E3C493D4A1F
:1000E0003E0E401C4132422143234424452B4634DA
:1000F00047334843493B4A424B4B4C3A4D314E44BF
:100100004F4D5015512D521B532C543C552A561D02
:1001100057225835591A5A4C5B5D5C545D5B5E55ED
:100120005F618B0561066204630C6403650B668383
:10013000670A680169096A786B076C086D106E18A8
:100140006F2070287130723873407448755076573C
:10015000775F786D60519113926A9364946795F21A
:1001600096F197639862995FA0000000000000007C
:10017000000004050700000000000000000000006F
:10018000010204081020408001020408102001022E
:100190000408102040804004040404040404040201
:1001A000020202020203030303030302020300002C
:1001B0000000360033003000000000003800350039
:1001C0003200000000003700340031006D07EC0EF3
:1001D00011241FBECFE5D4E0DEBFCDBF10E0A0E606
:1001E000B0E0E2EFFEE102C005900D92A637B10744
:1001F000D9F722E0A6E7B0E001C01D92A636B2070B
:10020000E1F710E0C8EED0E003C02197FE0169DEFF
:10021000C63ED107D1F739DE6ACEF2CE0F931F93D7
:10022000CF93DF93EC01062F142F62E0802FB8DB11
:1002300062E0812FB5DB602F70E0FB01E956FE4FD5
:10024000E491F0E0EE0FFF1FE255FE4F859194918F
:1002500099838883FB01E058FE4FE491EC83412FA2
:1002600050E0FA01E956FE4FE491F0E0EE0FFF1F77
:10027000E255FE4F859194919B838A83FA01E05861
:10028000FE4FE491ED831F82188619861A8680ED51
:1002900097E051DBE881F98190818C81982381E09E
:1002A00009F480E0EA81FB8190812D81922309F09D
:1002B00082608E83DF91CF911F910F910895DC01B1
:1002C000ED91FD918081ED91FD919081ED91FD91F8
:1002D0006C9163708E2309F064609F2309F068605D
:1002E000ECE7F1E0E60FF11D659565956D936D9175
:1002F0007D918D919D91099423C01AC012C016C0A2
:1003000010C01EC009C014C013C006C019C009C067
:100310000DC007C00DC014C06250704080409040B6
:100320000BC0615070408040904006C06E5F01C0BD
:100330006F5F7F4F8F4F9F4F9E938E937E936E93F1
:100340000895CF9362E084E02BDB62E080E128DB5C
:1003500062E081E125DB62E082E122DB61E083E1B2
:100360001FDB80E186DB20918400892B09F47FC0AC
:1003700021602093840081E17CDB20918400892B23
:1003800009F477C022602093840082E172DB20911F
:100390008400892B09F46FC0246020938400C091ED
:1003A0008400C770C0938400E091DD00F091DE000E
:1003B00026E042E15AE760E070E08081918155DCFF
:1003C000C093DF001092E1001092E0001092E8006C
:1003D0001092E7001092E6001092E5008FEF9FEF79
:1003E0009093EA008093E9009093EC008093EB00F7
:1003F00096DA6093750170937601809377019093FC
:100400007801109272011092EF001092EE0010929B
:10041000F0001092F100109274011092730187E0C5
:100420008093ED008E7F91E009F490E08091ED00E3
:1004300090FB80F98093ED0043E062E085E891E075
:1004400085D961E085E891E035D961E085E891E002
:1004500027D988E090E0909383008093820089E020
:1004600090E09093810080938000CF9108952E7F3B
:1004700080CF2D7F88CF2B7F90CFDC018D919C91F9
:10048000DC01ED91FC910190F081E02D09946D3F2C
:1004900040F46A3F10F4683F31F4FC01808191819F
:1004A000ECCF6E3FD0F70895EF92FF920F931F931A
:1004B000CF93DF930150003108F567FF1FC0D22FA3
:1004C000142FC62F7C01602F6C2BFC0182A593A5F5
:1004D000D4DF612F6F77F70182A593A5CEDFCF7EA2
:1004E000C03C61F06D2F6F77F70182A593A5DF9176
:1004F000CF911F910F91FF90EF90BFCFDF91CF91E0
:100500001F910F91FF90EF9008950F93613E18F4A3
:10051000CBDF0F910895683FE0F38A960F91B7CF34
:100520000F93022F242F462F60EBBEDF0F9108950B
:10053000CF93DF93EC01E881F981309711F0CB96EE
:1005400009958CAD823F09F49EC090F5803C09F47A
:1005500086C090F4803909F454C030F4803809F42E
:1005600045C0DF91CF910895803A09F475C0803B72
:10057000C1F7EA85FB853CC0803E09F459C058F4B8
:10058000803D79F7EE85FF85309759F36DAD8BADE2
:10059000DF91CF910994803F09F464C0813F09F74E
:1005A000EC89FD893097E9F28DADDF91CF91099407
:1005B0008A3F91F180F4863F09F477C028F4833FA5
:1005C00081F6E88DF98DEECF883FF1F0893F49F64D
:1005D000E8A1F9A11BC08C3F29F108F18E3F29F158
:1005E0008F3F09F0BECFE8A5F9A510C0EC81FD81D1
:1005F000309709F4B6CF4EAD6DAD8BADDF91CF9195
:100600000994EE81FF81F4CFEC8DFD8D309709F4D4
:10061000A8CFDF91CF910994EE8DFF8DF7CFEAA19E
:10062000FBA1F4CFECA1FDA1F1CFEEA1FFA1EECF94
:10063000E889F989309709F494CF6EAD20E8629F7C
:10064000B001112460787F738DAD8F77682B705265
:100650008BADDF91CF910994E885F985C9CFEC8501
:10066000FD8592CFEA89FB89309709F47ACF6DAD89
:100670007EAD6138710510F060E870E0CE01CF9674
:10068000DF91CF910994EE89FF89309709F469CF02
:100690008EAD20E8829FC001112480789F732DAD1C
:1006A0002F77822BDF91CF910994EA8DFB8DAECF0E
:1006B000EF92FF920F931F93CF93DF93EC019AADCC
:1006C000292F217090FF1DC0892F8E7FD1F0362FEA
:1006D0006CAD80E8860F8136F0F40BAD031719F08E
:1006E00021E0311120E09695923049F0933081F06D
:1006F000913039F42EAD4DADCE0107DF02C021118E
:10070000F9CFDF91CF911F910F91FF90EF90089556
:100710002111F7CFEFCFE0E1E60FE03190F7F0E005
:10072000ED56FC4F099418C056C03EC02DC0E9CF0D
:10073000E8CF09C0E6CF07C0E4CF05C004C003C0BE
:10074000E0CF01C000C0CE018A96DF91CF911F910A
:100750000F91FF90EF909BCE7E018FE3E80EF11C8E
:100760000DAD1EAD0138110510F000E810E00E0DC2
:100770001F1DE016F10609F4C4CFF70161917F0156
:100780008AA59BA57ADEF5CF1DAD63EF8AA59BA553
:1007900074DE612F6F778AA59BA5DF91CF911F91A2
:1007A0000F91FF90EF9069CE0EADF0E80F9F8001A2
:1007B00011248DAD082B62EF8AA59BA55EDE602F0C
:1007C0006F778AA59BA559DE000F012F001F110B23
:1007D0001195602FDFCF6DAD80E1689FB0011124CE
:1007E00060771EAD1F70162B61EF8AA59BA545DEB5
:1007F000612FD1CF982F9F7E282F2F7C203839F062
:10080000803E29F081E0903C19F080E0089581E07D
:10081000089587FF0AC09CE0980F923030F08D3F1A
:1008200021F0803F18F4807F089580E00895EF92D2
:10083000FF921F93CF93DF931091DF00113108F0E7
:1008400073C0E091DD00F091DE0080819181DC01D8
:10085000ED91FC910084F185E02D0995892B09F437
:1008600063C0809182018E7F80938201E091DD00E0
:10087000F091DE0080819181DC01ED91FC91028498
:10088000F385E02D0995C82F8D3F09F44DC0809167
:10089000E7009091E800009709F0FAC0C093E200E9
:1008A000D091E0008D2FB5DFA5DF882361F0C7FD73
:1008B0000AC0D093E200C093E30081E090E09093FF
:1008C000E8008093E700C091E2008C2FA2DF813F17
:1008D00009F4A7C0F0F5803B39F048F4803921F0E5
:1008E000803A11F0803851F423E030E09CC0803D24
:1008F00009F497C0F8F4803C09F493C08091820118
:10090000816080938201E091B500F091B60030974C
:1009100009F009951092E8001092E7001092E600A5
:100920001092E5001092E000DF91CF911F91FF90AF
:10093000EF900895803EC1F2803F01F720E830E05B
:100940003093E6002093E5001092E0008093F200DF
:100950006EC0873F99F308F05DC0833F09F461C022
:1009600018F2863F59F68093EF001092EE00109235
:10097000F0001092F10081E0809372011092E80083
:100980001092E7001092E6001092E5008091EF00CF
:10099000803939F48091F100811103C080E880939F
:1009A000EF008091EF008058813638F48091EE009E
:1009B000181719F0C0E0111104C083EB90E0B8DD06
:1009C000C1E0612F83EB90E073DECC2309F4ACCF60
:1009D0008091EF00803909F0A7CF61E083E11CD856
:1009E0009ED7AB01BC018091F00028E0829FC0013E
:1009F0001124092E000CAA0BBB0B840F951FA61FF8
:100A0000B71F80937C0090937D00A0937E00B093ED
:100A10007F008ACF8D3F08F4A6CF8E3F08F0A3CF8A
:100A20006DCF22E030E03093E6002093E500209186
:100A3000E7003091E8004091E5005091E600415018
:100A4000510924173507E8F08093EF00CF70CF5F8E
:100A5000C093EE008091E3008093F0001092F100CB
:100A600081E090E090937401809373011092E8000C
:100A70001092E7001092E6001092E5008093720158
:100A800085CF2F5F3F4F3093E8002093E7004CCF96
:100A9000C7FF0CC0CD3F08F04CC0C83F08F04CC0A9
:100AA000C03F09F458C0C73F09F455C02091E20087
:100AB000FC01ED54FF4F203F19F0273F09F074C0AF
:100AC000C7AFE090E500F090E600970121503109B2
:100AD0008217930708F4A5C0D091E200D03F19F027
:100AE000D73F09F063C0C091710180EF809371011D
:100AF0008093EF0080E88093F0001092F100109254
:100B0000EE0080E890E0909374018093730181E09F
:100B10008093720183EB90E00BDD87EF8093F2000E
:100B2000C093F30082E090E09093E8008093E700A8
:100B3000FBCECE3F08F4BACFC093EF001092F00086
:100B40001092F1001092EE0081E090E09093740119
:100B50008093730193CF2091F200203F19F0273F3B
:100B600009F0CCCE9C012F5F3F4F8D549F4FFC016D
:100B7000C7AF80EF8093EF002093F0003093F10037
:100B80001092EE00309374012093730181E0809302
:100B900072011092E8001092E7001092E6001092A5
:100BA000E5001092E000F2CEC7A78BCF8D2F31DE8B
:100BB000C82F8093EF001EDE882349F18D2F8F70A0
:100BC0008F5F8093EE008091E3008093F00080912E
:100BD000E400F3E0EF16F10409F080E08093F10007
:100BE0001092E8001092E7001092E6001092E500E3
:100BF00081E080937201C03B39F060F4C03921F08C
:100C0000C03A11F0C03869F6D093E000BFCE109220
:100C1000EE00D9CFC03DC1F3C03EB1F3C03C09F6F0
:100C2000F3CF019681CF0F931F9379D6009178006F
:100C30001091790020917A0030917B006017710744
:100C40008207930708F4AEC084E013D7892B09F418
:100C5000CAC088EA90E033DB2091AF003091B00049
:100C60001092AF001092B0001092B1001092B2003A
:100C7000C9019093770080937600892B41F040E47E
:100C8000421B2091840060E083EB90E049DC8DE919
:100C900090E015DB2091A4003091A5001092A400F3
:100CA0001092A5001092A6001092A700C90190937F
:100CB000770080937600892B41F040E4421B20911D
:100CC000840061E083EB90E02BDC82E990E0F7DACE
:100CD0002091990030919A001092990010929A00F8
:100CE00010929B0010929C00C90190937700809312
:100CF0007600892B41F040E4421B2091840062E0A1
:100D000083EB90E00DDC87E890E0D9DA20918E004B
:100D100030918F0010928E0010928F0010929000F0
:100D200010929100C9019093770080937600892BEF
:100D300041F040E4421B2091840063E083EB90E0AB
:100D4000EFDB85E891E0C0D48823F9F085E891E0F5
:100D5000E6D4909386008093850069DD80918500BC
:100D600090918600009789F020918400492F60912E
:100D7000820083EB90E0D4DB2091840040918500D9
:100D80006091800083EB90E0CBDBC9D56C597F4F3D
:100D90008F4F9F4F609378007093790080937A0013
:100DA00090937B0088EA90E08ADA8DE990E087DA18
:100DB00082E990E084DA87E890E081DA38DDAFD527
:100DC00000917C0010917D0020917E0030917F0089
:100DD000601771078207930708F47CC060E083E125
:100DE0001F910F9119C688EA90E069DA2091AF004F
:100DF0003091B0001092AF001092B0001092B1008C
:100E00001092B200C9019093770080937600892BED
:100E100041F040E4421B2091840064E083EB90E0C9
:100E20007FDB8DE990E04BDA2091A4003091A500A2
:100E30001092A4001092A5001092A6001092A70094
:100E4000C9019093770080937600892B41F040E4AC
:100E5000421B2091840065E083EB90E061DB82E936
:100E600090E02DDA2091990030919A00109299002B
:100E700010929A0010929B0010929C00C9019093CE
:100E8000770080937600892B41F040E4421B20914B
:100E9000840066E083EB90E043DB87E890E00FDAC4
:100EA00020918E0030918F0010928E0010928F0052
:100EB0001092900010929100C90190937700809356
:100EC0007600892B09F43DCF40E4421B2091840039
:100ED00067E034CF1F910F91089585E891E035D4F4
:100EE00089EC91E09093840180938301E3EBF0E03F
:100EF0001182108213821282158214821782168246
:100F00001186108613861286158614861786168615
:100F1000118A108A138A128A158A148A178A168AE5
:100F2000118E108E138E128E158E148E178E168EB5
:100F300011A210A213A212A215A214A217A216A205
:100F400011A610A683E891E093A782A714A615A680
:100F500016A613AA12AA15AA14AA8FEF9FEF97AB91
:100F600086AB91AF80AF83E08093ED0013AE14AEFB
:100F700015AE16AE10927201E2EFF0E080E8DF01EC
:100F80001D928A95E9F710927501109276011092E0
:100F90007701109278011092790110927A011092E3
:100FA0007B0110927C0110927D0110927E011092C3
:100FB0007F0110928001109281011092820146E01F
:100FC00065E088EA90E02AD948E067E08DE990E0A2
:100FD00025D94AE069E082E990E020D94FE06EE04F
:100FE00087E890E01BC99091A2019F5F963008F0BE
:100FF00090E02091A101291751F0E92FF0E0ED5583
:10100000FE4F80839093A20181E090E008958CEFE1
:101010009FEF089562E0C4C48093AA0180939F016A
:101020001092AB011092A9018091BF01806C809356
:10103000BF0180919D0187FD0DC080919D0180FFC2
:1010400009C080919E018093AC018091BF018061B5
:101050008093BF0180919001823089F1833089F1C2
:101060008FEFB0D361E080919101D6D461E080919F
:10107000910196D461E080919001CED461E080919D
:1010800090018ED48AE090E056D460E08091900187
:10109000C3D48CE390E04FD460E080919101BCD444
:1010A00080919001B7DF80919001823061F08330B0
:1010B00061F08FEF42E050E060E979E064C380E0E6
:1010C000D0CF81E0CECF80E0F5CF81E0F3CF90911B
:1010D000A1018091A201891791F180919D01816008
:1010E00080939D0180919D0187FD2CC08091BF015F
:1010F00087FD28C010929E012FEF3FEF9F5F963033
:1011000008F090E0E92FF0E0ED55FE4F2F3F320759
:1011100069F4208130E09093A1018091A2018913AC
:10112000EDCF822F79DF81E090E0089580818B3BC5
:10113000C1F780919E018F5F80939E01ECCF8EEF6F
:101140009FEF08958AE79FEF0895CF938091AB01B9
:101150008F5F8093AB018091AB018A3048F482307D
:1011600090F560E0813009F447C01092AB013EC0B9
:101170008B3009F445C0E0F18C30B9F780919F01C4
:101180008E3E69F080919F018E3F49F080919F01D2
:101190008093A0018091BF0182608093BF01809104
:1011A000BF018F7B8093BF0180919D0187FF2CC081
:1011B00080919D018F7780939D018091BF0184FD77
:1011C000D4CF85DFD2CFC091AA01C1706C2F80919E
:1011D000910122D48091A901C80FC093A9018091E7
:1011E000AA0190E0959587958093AA01CF910895E3
:1011F0006091A9016095617080919101CF910CC4BB
:1012000080919101CF9106CF80919D018E7FD3CFA8
:101210001092A2011092A10110929D0110929E01C4
:101220001092AE011092AD011092AB0110928A01A2
:1012300010928F011092BF0108958E3F29F0909176
:10124000BF019D7F9093BF019091BF0194FF02C0A9
:10125000803F70F09091BF0192FD60C08E3E09F416
:1012600046C0E8F48A3A09F44EC020F4882351F1CC
:1012700086E00895803E09F44AC0813EC9F7809116
:10128000BF0182FD19C087E08093AC018091BF014E
:1012900084608093BF018091BF018F7D0BC08C3F24
:1012A000F1F060F4803F21F781E08093AC01809100
:1012B000BF0180628093BF0180E008958E3F29F0D6
:1012C0008F3FB1F6A5DF8CE008958091BF0181FFCB
:1012D000F3CF8091A00180939F0180E10895109247
:1012E000AC011092BF0110929D018EE00895909183
:1012F000BF0191FF0AC09091A0019E3E31F0809302
:101300009F0184E108951092AC0184E0089581E08A
:101310008093AC018091BF018860CCCF82E00895BA
:10132000CF92DF92EF92FF920F931F93CF93809112
:10133000BF0186FF08C0CF911F910F91FF90EF90E2
:10134000DF90CF9002CF8091910193D3C82FE7D245
:1013500000918601109187012091880130918901C7
:101360006B017C01C01AD10AE20AF30A97018601D7
:101370000B3F11052105310520F01092AB011092B1
:10138000AA016093860170938701809388019093EE
:1013900089018091AB018F5F8093AB018091AB019C
:1013A0008A3038F4823020F5813099F01092AB0108
:1013B00017C08A3091F18B30C9F78091A9018D3F18
:1013C000C8F18EEF29DE80919D01806880939D0198
:1013D000EDCF1092A9018091BF0180688093BF0179
:1013E000CF911F910F91FF90EF90DF90CF900895D4
:1013F0008091A9018C0F8093A9018091AA0190E0AE
:10140000959587958093AA0190E0C11190E880910D
:10141000AA01892B8093AA01E3CF8091A901817051
:101420008093A9018091A901C813DACF8DEF809331
:10143000A901D6CF8091AA0100DF81FF05C090915C
:10144000AC0191509093AC019091AC01191614F439
:1014500082FF1EC09091AE019F5F983008F090E02F
:101460002091AD012917A1F02091AA01E92FF0E008
:1014700030E0EE0FFF1FE155FE4F31832083409196
:10148000BF0120813181342B318320839093AE01C1
:1014900084FF03C080919F0195CF8091AC01181605
:1014A0000CF484CF8091BF01837C8093BF011092A4
:1014B000AC018091BF018F778093BF0108DE76CFAA
:1014C0008091AE019091AD01891B87FD885F0895E1
:1014D0008DEE89DD8BEB87DD80918F0184DD8BEBD9
:1014E00082DD892B09F0F3CD0895CF93DF93E0914E
:1014F000AD018091AE018E1709F4C9C0EF5FE830ED
:1015000008F0E0E0E093AD01F0E0EE0FFF1FE155E1
:10151000FE4F8081918120813181232F32FDBAC01D
:10152000382F8A3A20F04FE0480F423010F424FF61
:1015300004C09927DF91CF91089580918A0125FFFA
:101540001AC0806880938A01D0E0C0E023FF20C0E9
:10155000FE01E75CFF4FE4913E130FC0C65CDF4F16
:10156000FE01C491D0E02097E1F480918A019E01B0
:10157000382BC901DFCF8F77E5CF2296C235D10551
:1015800039F7D0E0C0E0F1CF2296CE3DD105C9F3C6
:10159000FE01E557FF4FE4913E13F6CFC457DF4FEE
:1015A000DFCF90918A01FE01C430D10508F045C01B
:1015B000E557FE4F97FF04C01082CBEBD0E022C06E
:1015C00080818130D1F381E0808381E0C230D10518
:1015D00051F082E0C330D10531F494FF28C09F7EE2
:1015E00090938A0184E090918F01292F282309F19B
:1015F0008095892380938F0180918A0180688093F0
:101600008A0166DF80918A0187FF04C09091920170
:1016100093FD43C09E012052310921343105A8F1C8
:10162000CB38D10591F1816080938A019ECF906182
:10163000D7CF892B80938F01E4CF3697E830F1051F
:1016400098F4EA5DFF4FE49197FF05C0E095E92328
:10165000E0938A01D7CF8E2F892321F080919201C8
:1016600087FDABCFE92BF4CFFE01B097EB30F1054E
:1016700048F680918F0181FF02C096FFC3CFE25DE3
:10168000FF4FE491CE2FD0E0BDCF8E7FCDCF90E045
:1016900080E050CF86E090E04DCF8BEB90E04ACFDA
:1016A00080919201877F90E0611198E0892B80936F
:1016B00092010895809192018F7790E0611190E8F6
:1016C000892B809392010895CF93C09194018091CA
:1016D0009301C81BC7FDCC5FC330F4F4F1DE88234F
:1016E000D9F003DF9C010097B9F099278B3B910556
:1016F00099F3892B89F3909194019F5F94300CF0BA
:1017000090E0E92FEE0FFF0BEB56FE4F3183208365
:1017100090939401CF5FE0CF8C2FCF910895D4DFC9
:10172000882381F0E0919301EF5FE43008F0E0E07E
:10173000E0939301F0E0EE0FFF1FEB56FE4F808128
:101740009181089590E080E008950895CF93DF930C
:10175000D62FC42F5DDDD0939101C09390018C2FC3
:1017600059DC8091910156DC80E0C23021F08FEF8E
:10177000C33009F481E042E050E060E979E0DF91B4
:10178000CF9101C00895823088F4E82FF0E0EE0F89
:10179000FF1FE05AFF4F71836083813041F085B7AE
:1017A0008C7F482B45BF8BB780648BBF089585B76E
:1017B000837F440F551F440F551F482B45BF8BB7E0
:1017C0008068F3CF823078F4E82FF0E0813061F068
:1017D0008BB78F7B8BBFEE0FFF1FE05AFF4F82EC62
:1017E0009BE09183808308958BB78F77F3CF1F920F
:1017F0000F920FB60F9211242F933F934F935F9345
:101800006F937F938F939F93AF93BF93EF93FF93C8
:10181000E0916000F09161000995FF91EF91BF9117
:10182000AF919F918F917F916F915F914F913F9178
:101830002F910F900FBE0F901F9018951F920F922F
:101840000FB60F9211242F933F934F935F936F9393
:101850007F938F939F93AF93BF93EF93FF93E09109
:101860006200F09163000995FF91EF91BF91AF91F4
:101870009F918F917F916F915F914F913F912F91A8
:101880000F900FBE0F901F9018951F920F920FB6DA
:101890000F9211242F933F938F939F93AF93BF93F6
:1018A0008091C5019091C601A091C701B091C80176
:1018B0003091C40123E0230F2D3768F126E8230F70
:1018C0000296A11DB11D2093C4018093C501909380
:1018D000C601A093C701B093C8018091C001909147
:1018E000C101A091C201B091C3010196A11DB11D1A
:1018F0008093C0019093C101A093C201B093C30132
:10190000BF91AF919F918F913F912F910F900FBEFB
:101910000F901F9018950196A11DB11DD4CF2FB720
:10192000F8946091C5017091C6018091C7019091B2
:10193000C8012FBF08958230910538F0880F991F94
:10194000880F991F05970197F1F70895789483B749
:10195000836083BF89B7816089BF82E08EBD8EB509
:1019600081608EBD8FB581608FBD85B5846085BD7A
:1019700085B5806485BD87E886B91AB80895853035
:1019800041F0873049F0843051F48FB58F778FBDA7
:1019900008958FB58F7DFBCF85B58F7D85BD08956B
:1019A000CF93DF9390E0FC01E058FE4F24918956DD
:1019B0009E4FFC0184918823C9F090E0880F991F05
:1019C000FC01EE53FE4FA591B491FC01E854FE4F8B
:1019D000C591D49161110DC09FB7F8948C91209559
:1019E00082238C938881282328839FBFDF91CF9106
:1019F0000895623051F49FB7F8943C91822F8095FE
:101A000083238C93E8812E2BEFCF8FB7F894EC9142
:101A10002E2B2C938FBFEACF1F93CF93DF93282FCA
:101A200030E0F901E759FE4F8491F901E058FE4F8B
:101A3000D491F901E956FE4FC491CC23A1F0162FA1
:101A400081119DDFEC2FF0E0EE0FFF1FE854FE4FF9
:101A5000A591B4918FB7F894EC91111108C0D0956D
:101A6000DE23DC938FBFDF91CF911F910895DE2B92
:101A7000F8CFCF93DF93282F30E0F901E759FE4FDD
:101A80008491F901E058FE4FD491F901E956FE4FD7
:101A9000C491CC2399F0811172DFEC2FF0E0EE0FAE
:101AA000FF1FE255FE4FA591B491EC91ED2381E02B
:101AB00090E009F480E0DF91CF91089580E090E01C
:101AC000FACFFC01918D228D892F90E0805C9F4F91
:101AD000821B91098F7399270895FC01918D828D46
:101AE000981731F0828DE80FF11D858D90E00895F3
:101AF0008FEF9FEF0895FC01918D828D981761F013
:101B0000A28DAE0FBF2FB11D5D968C91928D9F5F00
:101B10009F73928F90E008958FEF9FEF0895FC01DF
:101B2000538D448D252F30E0842F90E0821B930B42
:101B3000541710F0CF9608950197089583EE9EE014
:101B4000892B39F080E090E0892B19F03CD181118C
:101B500057C20895FC01A48DA80FB92FB11DA35A37
:101B6000BF4F2C91848D90E001968F739927848FBD
:101B7000A689B7892C93A089B1898C9182748C93A2
:101B8000938D848D981306C00288F389E02D80819F
:101B90008F7D80830895CF93DF93EC01888D882318
:101BA000B1F0AA89BB89E889F9898C9185FD03C0C8
:101BB000808186FD0CC00FB607FCF7CF8C9185FFA6
:101BC000F2CF808185FFEDCFCE01C4DFEACFDF9178
:101BD000CF910895EF92FF920F931F93CF93DF93CE
:101BE000EC0181E0888F9B8D8C8D981319C0E8895A
:101BF000F989808185FF14C09FB7F894EE89FF8929
:101C00006083E889F9898081827480839FBF81E045
:101C100090E0DF91CF911F910F91FF90EF90089589
:101C2000F62E0B8D10E00F5F1F4F0F731127E02E64
:101C30008C8D8E110BC00FB607FCFACFE889F9899D
:101C4000808185FFF5CFCE0185DFF2CFEB8DEC0FE4
:101C5000FD2FF11DE35AFF4FF0829FB7F8940B8FD1
:101C6000EA89FB8980818062D0CFCF92DF92EF92A8
:101C7000FF921F93CF93DF93EC016A017B01122F38
:101C8000E889F98982E08083C11481EED806E104F5
:101C9000F10499F060E079E08DE390E0A70196010E
:101CA000FED0215031094109510956954795379584
:101CB0002795211580E1380790F0E889F98910828D
:101CC00060E874E88EE190E0A7019601E8D0215029
:101CD0003109410951095695479537952795EC8566
:101CE000FD853083EE85FF852083188E1068EC8992
:101CF000FD891083EA89FB89808188698083EA896C
:101D0000FB8980818F7D8083DF91CF911F91FF9030
:101D1000EF90DF90CF9008951F920F920FB60F9221
:101D200011242F938F939F93EF93FF93E091D90109
:101D3000F091DA018081E091DF01F091E00182FD14
:101D40001BC090818091E2018F5F8F732091E3012E
:101D5000821741F0E091E201F0E0E753FE4F958FEA
:101D60008093E201FF91EF919F918F912F910F90BE
:101D70000FBE0F901F9018958081F4CF1F920F9285
:101D80000FB60F9211242F933F934F935F936F934E
:101D90007F938F939F93AF93BF93EF93FF9389ECC0
:101DA00091E0D8DEFF91EF91BF91AF919F918F911C
:101DB0007F916F915F914F913F912F910F900FBE47
:101DC0000F901F90189589EC91E07BDE21E0892B24
:101DD00009F420E0822F0895E9ECF1E013821282E9
:101DE00088EE93E0A0E0B0E084839583A683B78378
:101DF00088E690E09183808380E490E095878487F3
:101E000029E230E0378726872BE230E0318B208BC8
:101E10002AE230E0338B228B958B848B8CE290E02E
:101E2000978B868B118E128E138E148E0895AF921F
:101E3000BF92CF92DF92EF92FF920F931F93CF93B7
:101E4000DF936C017B018B01040F151FEB015E0119
:101E5000AE18BF08C017D10759F06991D601ED91AE
:101E6000FC910190F081E02DC6010995892B79F74D
:101E7000C501DF91CF911F910F91FF90EF90DF90FF
:101E8000CF90BF90AF900895089560DDFDDF59D2E7
:101E9000CEE9DDE0C8D62097E9F350DEFBCFA1E222
:101EA0001A2EAA1BBB1BFD010DC0AA1FBB1FEE1FD4
:101EB000FF1FA217B307E407F50720F0A21BB30B1F
:101EC000E40BF50B661F771F881F991F1A9469F79B
:101ED00060957095809590959B01AC01BD01CF01F7
:101EE0000895EE0FFF1F0590F491E02D0994F894EA
:021EF000FFCF22
:101EF200C20B000000000000EA0D170F8F0DCB0D82
:061F0200610D7B0D6D0D69
:00000001FF
