:10000000E7C0DFCB05CC09C108C107C106C105C1E6
:1000100004C125CC02C1A1CED2CEFFC0FEC0FDC01E
:10002000FCC0FBC0FAC040402020080402021912A4
:10003000181415BB161117131A12BB7C04140911DE
:100040000B1F0C270D2F0E7E0F6C1169127D137A7A
:10005000146B157416751772187019711A5A2B4A89
:100060002F4D79157A3B7B347C237D327E217F5066
:100070008048812B82408310843A853886308728D7
:10008000882089188A378C3F8D5E9077017E0258D0
:1000900003120659071408110A8410761B661C0DFA
:1000A0001D5A1E291F7020692172227A236B247326
:1000B0002574266C2775287D29712A792C7B2D7C47
:1000C0002E0F3F453016311E32263325342E35365D
:1000D000363D373E384639523A413B4E3C493D4A1F
:1000E0003E0E401C4132422143234424452B4634DA
:1000F00047334843493B4A424B4B4C3A4D314E44BF
:100100004F4D5015512D521B532C543C552A561D02
:1001100057225835591A5A4C5B5D5C545D5B5E55ED
:100120005F618B0561066204630C6403650B668383
:10013000670A680169096A786B076C086D106E18A8
:100140006F2070287130723873407448755076573C
:10015000775F786D60519113926A9364946795F21A
:1001600096F197639862995FA0000000000000007C
:10017000000004050700000000000000000000006F
:10018000010204081020408001020408102001022E
:100190000408102040804004040404040404040201
:1001A000020202020203030303030302020300002C
:1001B0000000360033003000000000003800350039
:1001C00032000000000037003400310057070D0FE7
:1001D00011241FBECFE5D4E0DEBFCDBF10E0A0E606
:1001E000B0E0E4E3FFE102C005900D92A837B1074B
:1001F000D9F722E0A8E7B0E001C01D92A137B2070D
:10020000E1F710E0C8EED0E003C02197FE018ADEDE
:10021000C63ED107D1F75ADE8BCEF2CE80918E004A
:1002200090918F006817190631F488E0489FB0015B
:10023000112483E18ECB08950F931F93CF93DF9307
:10024000EC01062F142F62E0802FCBDB62E0812FC0
:10025000C8DB602F70E0FB01E956FE4FE491F0E04F
:10026000EE0FFF1FE255FE4F85919491998388838D
:10027000FB01E058FE4FE491EC83412F50E0FA017E
:10028000E956FE4FE491F0E0EE0FFF1FE255FE4FFE
:10029000859194919B838A83FA01E058FE4FE49103
:1002A000ED831F82188619861A8680ED97E02DDB74
:1002B000E881F98190818C81982381E009F480E0C4
:1002C000EA81FB8190812D81922309F082608E83E7
:1002D000DF91CF911F910F910895DC01ED91FD9178
:1002E0008081ED91FD919081ED91FD916C91637014
:1002F0008E2309F064609F2309F06860EAE8F1E06A
:10030000E60FF11D659565956D936D917D918D91CC
:100310009D91099423C01AC012C016C010C01EC0FF
:1003200009C014C013C006C019C009C00DC007C061
:100330000DC014C062507040804090400BC06150AE
:1003400070408040904006C06E5F01C06F5F7F4F7D
:100350008F4F9F4F9E938E937E936E930895E0915F
:10036000E800F091E90026E042E15AE760E070E041
:10037000808191819BDC1092EA001092EC00109237
:10038000EB001092F3001092F2001092F100109224
:10039000F0008FEF9FEF9093F5008093F40090931F
:1003A000F7008093F600A5DA6093800170938101D5
:1003B000809382019093830110927D011092FA0044
:1003C0001092F9001092FB001092FC0010927F0135
:1003D00010927E018091F80081708260816080932C
:1003E000F8008EE091E09093C5008093C40043E054
:1003F00062E080E991E094D961E080E991E044D93C
:1004000061E080E991E036D962E084E0EADA62E016
:1004100080E1E7DA62E081E1E4DA62E082E1E1DAF8
:1004200061E083E1DEDA80E145DB20918E003091EE
:100430008F00892B09F466C0216030938F002093D0
:100440008E0081E137DB20918E0030918F00892B67
:1004500009F45AC0226030938F0020938E0082E10D
:1004600029DB20918E0030918F00892B09F44EC03A
:10047000246030938F0020938E0020918E00309165
:100480008F004CE0429FC001439F900D1124909338
:100490008D0080938C009C012F5F3F4F30938B0029
:1004A00020938A002F5F3F4F30938900209388006C
:1004B0002F5F3F4F30938700209386002F5F3F4F81
:1004C00030938500209384002F5F3F4F309383004B
:1004D000209382002F5F3F4F309381002093800054
:1004E0002F5F3F4F30937F0020937E002F5F3F4F61
:1004F00030937D0020937C00099690937B0080933D
:100500007A0008952E7F99CF2D7FA5CF2B7FB1CF75
:10051000DC018D919C91DC01ED91FC910190F081C9
:10052000E02D09946D3F40F46A3F10F4683F31F4C8
:10053000FC0180819181ECCF6E3FD0F70895EF925E
:10054000FF920F931F93CF93DF930150003108F573
:1005500067FF1FC0D22F142FC62F7C01602F6C2B7A
:10056000FC0182A593A5D4DF612F6F77F70182A5E7
:1005700093A5CEDFCF7EC03C61F06D2F6F77F70182
:1005800082A593A5DF91CF911F910F91FF90EF90DE
:10059000BFCFDF91CF911F910F91FF90EF90089502
:1005A0000F93613E18F4CBDF0F910895683FE0F39D
:1005B0008A960F91B7CF0F93022F242F462F60EB0F
:1005C000BEDF0F910895CF93DF93EC01E881F981AD
:1005D000309711F0CB9609958CAD823F09F49EC0FF
:1005E00090F5803C09F486C090F4803909F454C039
:1005F00030F4803809F445C0DF91CF910895803AF6
:1006000009F475C0803BC1F7EA85FB853CC0803E9C
:1006100009F459C058F4803D79F7EE85FF8530978D
:1006200059F36DAD8BADDF91CF910994803F09F403
:1006300064C0813F09F7EC89FD893097E9F28DADFF
:10064000DF91CF9109948A3F91F180F4863F09F4BC
:1006500077C028F4833F81F6E88DF98DEECF883F8F
:10066000F1F0893F49F6E8A1F9A11BC08C3F29F1BF
:1006700008F18E3F29F18F3F09F0BECFE8A5F9A51B
:1006800010C0EC81FD81309709F4B6CF4EAD6DAD51
:100690008BADDF91CF910994EE81FF81F4CFEC8D8A
:1006A000FD8D309709F4A8CFDF91CF910994EE8D9D
:1006B000FF8DF7CFEAA1FBA1F4CFECA1FDA1F1CF13
:1006C000EEA1FFA1EECFE889F989309709F494CF24
:1006D0006EAD20E8629FB001112460787F738DAD0C
:1006E0008F77682B70528BADDF91CF910994E8859D
:1006F000F985C9CFEC85FD8592CFEA89FB893097D2
:1007000009F47ACF6DAD7EAD6138710510F060E807
:1007100070E0CE01CF96DF91CF910994EE89FF89E9
:10072000309709F469CF8EAD20E8829FC001112473
:1007300080789F732DAD2F77822BDF91CF91099415
:10074000EA8DFB8DAECFEF92FF920F931F93CF9365
:10075000DF93EC019AAD292F217090FF1DC0892FE6
:100760008E7FD1F0362F6CAD80E8860F8136F0F4A5
:100770000BAD031719F021E0311120E0969592306E
:1007800049F0933081F0913039F42EAD4DADCE016A
:1007900007DF02C02111F9CFDF91CF911F910F9197
:1007A000FF90EF9008952111F7CFEFCFE0E1E60F32
:1007B000E03190F7F0E0E252FC4F099418C056C0C7
:1007C0003EC02DC0E9CFE8CF09C0E6CF07C0E4CFD7
:1007D00005C004C003C0E0CF01C000C0CE018A96AE
:1007E000DF91CF911F910F91FF90EF909BCE7E01F3
:1007F0008FE3E80EF11C0DAD1EAD0138110510F0B0
:1008000000E810E00E0D1F1DE016F10609F4C4CF3C
:10081000F70161917F018AA59BA57ADEF5CF1DAD19
:1008200063EF8AA59BA574DE612F6F778AA59BA5D0
:10083000DF91CF911F910F91FF90EF9069CE0EAD98
:10084000F0E80F9F800111248DAD082B62EF8AA57F
:100850009BA55EDE602F6F778AA59BA559DE000FF2
:10086000012F001F110B1195602FDFCF6DAD80E1BF
:10087000689FB001112460771EAD1F70162B61EFC9
:100880008AA59BA545DE612FD1CF982F9F7E282F6B
:100890002F7C203839F0803E29F081E0903C19F01F
:1008A00080E0089581E0089587FF0AC09CE0980FDA
:1008B000923030F08D3F21F0803F18F4807F089512
:1008C00080E00895EF92FF921F93CF93DF9384E02F
:1008D000F1D8892B09F4F5C083EB90E0FEDC409160
:1008E000BA002091BB001092BA001092BB00109287
:1008F000BC001092BD00842F922F909379008093BA
:100900007800892B41F0405C2091600060918C0060
:100910008EEB90E050DE88EA90E0DFDC4091AF00A3
:100920002091B0001092AF001092B0001092B10070
:100930001092B200842F922F9093790080937800C8
:10094000892B41F0405C2091600060918A008EEB21
:1009500090E031DE8DE990E0C0DC4091A400209170
:10096000A5001092A4001092A5001092A60010926B
:10097000A700842F922F9093790080937800892B81
:1009800041F0405C20916000609188008EEB90E027
:1009900012DE82E990E0A1DC4091990020919A005A
:1009A0001092990010929A0010929B0010929C0055
:1009B000842F922F9093790080937800405C20914F
:1009C000600060918600892B09F0F5C080E991E014
:1009D00065D68823C1F080E991E08BD69093910091
:1009E00080939000009779F021E0492F60917C007E
:1009F0008EEB90E0E0DD21E04091900060917A0084
:100A00008EEB90E0D8DD1091EA00113108F0F4C0CF
:100A1000E091E800F091E90080819181DC01ED91A5
:100A2000FC910084F185E02D0995892B09F4E4C03F
:100A300080918D018E7F80938D01E091E800F0918F
:100A4000E90080819181DC01ED91FC910284F385C4
:100A5000E02D0995C82F8D3F09F4CEC08091F2009A
:100A60009091F300009709F057C1C093ED00D09129
:100A7000EB008D2F19DF09DF882361F0C7FD0AC065
:100A8000D093ED00C093EE0081E090E09093F300EE
:100A90008093F200C091ED008C2F06DF813F09F4B6
:100AA00004C108F0BFC0803B49F008F088C080391D
:100AB00029F0803A19F0803809F088C023E030E04E
:100AC000F6C083EB90E009DC4091BA002091BB00B6
:100AD0001092BA001092BB001092BC001092BD00A0
:100AE000842F922F9093790080937800892B41F086
:100AF000405C20916000609184008EEB90E05BDDB3
:100B000088EA90E0EADB4091AF002091B0001092BB
:100B1000AF001092B0001092B1001092B200842F7A
:100B2000922F9093790080937800892B41F0405C5C
:100B300020916000609182008EEB90E03CDD8DE9B9
:100B400090E0CBDB4091A4002091A5001092A4007E
:100B50001092A5001092A6001092A700842F922F49
:100B60009093790080937800892B41F0405C20912C
:100B70006000609180008EEB90E01DDD82E990E0E6
:100B8000ACDB4091990020919A001092990010924C
:100B90009A0010929B0010929C00842F922F9093A9
:100BA000790080937800892B09F410CF405C209164
:100BB000600060917E008EEB90E0FDDC07CF803D11
:100BC00009F473C0F8F4803C09F46FC080918D0182
:100BD000816080938D01E091C000F091C100309759
:100BE00009F009951092F3001092F2001092F100B2
:100BF0001092F0001092EB00DF91CF911F91FF90C7
:100C0000EF900895803E09F459CF803FF9F620E82F
:100C100030E03093F1002093F0001092EB008093CD
:100C2000FD0049C0873F99F3D8F5833FF1F108F4FF
:100C300045CF863F59F68093FA001092F900109242
:100C4000FB001092FC0081E080937D011092F30084
:100C50001092F2001092F1001092F0008091FA00D0
:100C6000803939F48091FC00811103C080E88093C1
:100C7000FA008091FA008058813630F48091F900B2
:100C8000181711F0111103C08EEB90E09CDC612F5E
:100C90008EEB90E0DF91CF911F91FF90EF9053CDBD
:100CA0008D3F48F28E3F38F691CF22E030E030930E
:100CB000F1002093F0002091F2003091F300409178
:100CC000F0005091F1004150510924173507E8F028
:100CD0008093FA00CF70CF5FC093F9008091EE004F
:100CE0008093FB001092FC0081E090E090937F01E4
:100CF00080937E011092F3001092F2001092F100A6
:100D00001092F00080937D01A9CF2F5F3F4F309369
:100D1000F3002093F20070CFC7FF0CC0CD3F08F066
:100D20004CC0C83F08F04CC0C03F09F458C0C73F92
:100D300009F455C02091ED00FC01E254FF4F203F23
:100D400019F0273F09F074C0C7AFE090F000F090B1
:100D5000F1009701215031098217930708F4A5C0CB
:100D6000D091ED00D03F19F0D73F09F063C0C0919A
:100D70007C0180EF80937C018093FA0080E880936F
:100D8000FB001092FC001092F90080E890E0909334
:100D90007F0180937E0181E080937D018EEB90E066
:100DA00012DC87EF8093FD00C093FE0082E090E0AC
:100DB0009093F3008093F2001FCFCE3F08F4BACF98
:100DC000C093FA001092FB001092FC001092F90000
:100DD00081E090E090937F0180937E0193CF2091FA
:100DE000FD00203F19F0273F09F0F0CE9C012F5F56
:100DF0003F4F82549F4FFC01C7AF80EF8093FA00B2
:100E00002093FB003093FC001092F90030937F0197
:100E100020937E0181E080937D011092F300109277
:100E2000F2001092F1001092F0001092EB0016CF39
:100E3000C7A78BCF8D2F38DDC82F8093FA0025DD13
:100E4000882349F18D2F8F708F5F8093F9008091F7
:100E5000EE008093FB008091EF00F3E0EF16F104C9
:100E600009F080E08093FC001092F3001092F200F1
:100E70001092F1001092F00081E080937D01C03B60
:100E800039F060F4C03921F0C03A11F0C03869F689
:100E9000D093EB00E3CE1092F900D9CFC03DC1F35F
:100EA000C03EB1F3C03C09F6F3CF019681CF80E993
:100EB00091E035D484ED91E090938F0180938E0181
:100EC000EEEBF0E0118210821382128215821482FE
:100ED000178216821186108613861286158614864E
:100EE00017861686118A108A138A128A158A148A1E
:100EF000178A168A118E108E138E128E158E148EEE
:100F0000178E168E11A210A213A212A215A214A25D
:100F100017A216A211A610A68EE891E093A782A7A9
:100F200014A615A616A613AA12AA15AA14AA8FEF1C
:100F30009FEF97AB86AB91AF80AF83E08093F800D3
:100F400013AE14AE15AE16AE10927D01EDEFF0E0CB
:100F500080E8DF011D928A95E9F7109280011092D6
:100F600081011092820110928301109284011092EB
:100F700085011092860110928701109288011092CB
:100F8000890110928A0110928B0110928C011092AB
:100F90008D0146E065E083EB90E04ED948E067E0E4
:100FA00088EA90E049D94AE069E08DE990E044D9C7
:100FB0004FE06EE082E990E03FC99091AD019F5F04
:100FC000963008F090E02091AC01291751F0E92FFC
:100FD000F0E0E255FE4F80839093AD0181E090E018
:100FE00008958CEF9FEF089562E0FBC48093B501F4
:100FF0008093AA011092B6011092B4018091CA01A7
:10100000806C8093CA018091A80187FD0DC08091FA
:10101000A80180FF09C08091A9018093B701809148
:10102000CA0180618093CA0180919B01823089F15D
:10103000833089F18FEFB0D361E080919C010DD5B1
:1010400061E080919C01CDD461E080919B0105D548
:1010500061E080919B01C5D48AE090E056D460E0C5
:1010600080919B01FAD48CE390E04FD460E08091B2
:101070009C01F3D480919B01B7DF80919B0182306A
:1010800061F0833061F08FEF42E050E06AE779E091
:1010900064C380E0D0CF81E0CECF80E0F5CF81E0A7
:1010A000F3CF9091AC018091AD01891791F18091BE
:1010B000A80181608093A8018091A80187FD2CC0C0
:1010C0008091CA0187FD28C01092A9012FEF3FEF40
:1010D0009F5F963008F090E0E92FF0E0E255FE4F78
:1010E0002F3F320769F4208130E09093AC0180916A
:1010F000AD018913EDCF822F79DF81E090E0089573
:1011000080818B3BC1F78091A9018F5F8093A901FA
:10111000ECCF8EEF9FEF08958AE79FEF0895CF936E
:101120008091B6018F5F8093B6018091B6018A30BD
:1011300048F4823090F560E0813009F447C01092A5
:10114000B6013EC08B3009F445C0E0F18C30B9F7F0
:101150008091AA018E3E69F08091AA018E3F49F0EC
:101160008091AA018093AB018091CA018260809333
:10117000CA018091CA018F7B8093CA018091A80126
:1011800087FF2CC08091A8018F778093A801809160
:10119000CA0184FDD4CF85DFD2CFC091B501C17023
:1011A0006C2F80919C0159D48091B401C80FC093D9
:1011B000B4018091B50190E0959587958093B50134
:1011C000CF9108956091B4016095617080919C0108
:1011D000CF9143C480919C01CF9106CF8091A8010B
:1011E0008E7FD3CF1092AD011092AC011092A80166
:1011F0001092A9011092B9011092B8011092B60193
:101200001092950110929A011092CA0108958E3F92
:1012100029F09091CA019D7F9093CA019091CA01D3
:1012200094FF02C0803F70F09091CA0192FD60C0AF
:101230008E3E09F446C0E8F48A3A09F44EC020F420
:10124000882351F186E00895803E09F44AC0813E2A
:10125000C9F78091CA0182FD19C087E08093B70168
:101260008091CA0184608093CA018091CA018F7DF8
:101270000BC08C3FF1F060F4803F21F781E0809358
:10128000B7018091CA0180628093CA0180E008950D
:101290008E3F29F08F3FB1F6A5DF8CE00895809155
:1012A000CA0181FFF3CF8091AB018093AA0180E155
:1012B00008951092B7011092CA011092A8018EE011
:1012C00008959091CA0191FF0AC09091AB019E3E92
:1012D00031F08093AA0184E108951092B70184E06F
:1012E000089581E08093B7018091CA018860CCCFD6
:1012F00082E00895CF92DF92EF92FF920F931F93B7
:10130000CF938091CA0186FF08C0CF911F910F91A2
:10131000FF90EF90DF90CF9002CF80919C01CAD3D5
:10132000C82FE7D200919101109192012091930171
:10133000309194016B017C01C01AD10AE20AF30AD0
:10134000970186010B3F11052105310520F0109210
:10135000B6011092B5016093910170939201809350
:101360009301909394018091B6018F5F8093B601B1
:101370008091B6018A3038F4823020F5813099F0BE
:101380001092B60117C08A3091F18B30C9F7809165
:10139000B4018D3FC8F18EEF29DE8091A8018068ED
:1013A0008093A801EDCF1092B4018091CA018068AA
:1013B0008093CA01CF911F910F91FF90EF90DF9022
:1013C000CF9008958091B4018C0F8093B4018091E7
:1013D000B50190E0959587958093B50190E0C11196
:1013E00090E88091B501892B8093B501E3CF80917E
:1013F000B40181708093B4018091B401C813DACF35
:101400008DEF8093B401D6CF8091B50100DF81FFCD
:1014100005C09091B70191509093B7019091B70199
:10142000191614F482FF1EC09091B9019F5F983085
:1014300008F090E02091B8012917A1F02091B501A2
:10144000E92FF0E030E0EE0FFF1FE654FE4F31834E
:1014500020834091CA0120813181342B3183208344
:101460009093B90184FF03C08091AA0195CF809128
:10147000B70118160CF484CF8091CA01837C809345
:10148000CA011092B7018091CA018F778093CA0177
:1014900008DE76CF8091B9019091B801891B87FD54
:1014A000885F08958DEE89DD8BEB87DD80919A0151
:1014B00084DD8BEB82DD892B09F0F3CD0895CF938A
:1014C000DF93E091B8018091B9018E1709F4C9C08A
:1014D000EF5FE83008F0E0E0E093B801F0E0EE0FF5
:1014E000FF1FE654FE4F8081918120813181232F9F
:1014F00032FDBAC0382F8A3A20F04FE0480F423010
:1015000010F424FF04C09927DF91CF9108958091B2
:10151000950125FF1AC0806880939501D0E0C0E056
:1015200023FF20C0FE01E75CFF4FE4913E130FC094
:10153000C65CDF4FFE01C491D0E02097E1F48091BA
:1015400095019E01382BC901DFCF8F77E5CF229619
:10155000C235D10539F7D0E0C0E0F1CF2296CE3DBB
:10156000D105C9F3FE01E557FF4FE4913E13F6CFD5
:10157000C457DF4FDFCF90919501FE01C430D105F4
:1015800008F045C0EA56FE4F97FF04C01082CBEB2F
:10159000D0E022C080818130D1F381E0808381E07E
:1015A000C230D10551F082E0C330D10531F494FF4F
:1015B00028C09F7E9093950184E090919A01292FF5
:1015C000282309F18095892380939A0180919501C0
:1015D00080688093950166DF8091950187FF04C044
:1015E00090919D0193FD43C09E0120523109213409
:1015F0003105A8F1CB38D10591F181608093950137
:101600009ECF9061D7CF892B80939A01E4CF3697F4
:10161000E830F10598F4EA5DFF4FE49197FF05C0CB
:10162000E095E923E0939501D7CF8E2F892321F010
:1016300080919D0187FDABCFE92BF4CFFE01B097E0
:10164000EB30F10548F680919A0181FF02C096FFC8
:10165000C3CFE25DFF4FE491CE2FD0E0BDCF8E7FB0
:10166000CDCF90E080E050CF86E090E04DCF8BEB87
:1016700090E04ACF80919D01877F90E0611198E0D2
:10168000892B80939D01089580919D018F7790E033
:10169000611190E8892B80939D010895CF93C091AB
:1016A0009F0180919E01C81BC7FDCC5FC330F4F43D
:1016B000F1DE8823D9F003DF9C010097B9F0992768
:1016C0008B3B910599F3892B89F390919F019F5F43
:1016D00094300CF090E0E92FEE0FFF0BE056FE4F38
:1016E0003183208390939F01CF5FE0CF8C2FCF91E8
:1016F0000895D4DF882381F0E0919E01EF5FE4300C
:1017000008F0E0E0E0939E01F0E0EE0FFF1FE056EE
:10171000FE4F80819181089590E080E008950895C2
:10172000CF93DF93D62FC42F5DDDD0939C01C09360
:101730009B018C2F59DC80919C0156DC80E0C230EB
:1017400021F08FEFC33009F481E042E050E06AE716
:1017500079E0DF91CF9101C00895823088F4E82FBD
:10176000F0E0EE0FFF1FEE59FF4F71836083813071
:1017700041F085B78C7F482B45BF8BB780648BBF0A
:10178000089585B7837F440F551F440F551F482B7D
:1017900045BF8BB78068F3CF823078F4E82FF0E054
:1017A000813061F08BB78F7B8BBFEE0FFF1FEE593F
:1017B000FF4F8CEA9BE09183808308958BB78F77EE
:1017C000F3CF1F920F920FB60F9211242F933F93D6
:1017D0004F935F936F937F938F939F93AF93BF9339
:1017E000EF93FF93E0916200F09163000995FF9100
:1017F000EF91BF91AF919F918F917F916F915F9189
:101800004F913F912F910F900FBE0F901F90189501
:101810001F920F920FB60F9211242F933F934F9365
:101820005F936F937F938F939F93AF93BF93EF9348
:10183000FF93E0916400F09165000995FF91EF91AD
:10184000BF91AF919F918F917F916F915F914F91D8
:101850003F912F910F900FBE0F901F9018951F92E0
:101860000F920FB60F9211242F933F938F939F9354
:10187000AF93BF938091D0019091D101A091D201FB
:10188000B091D3013091CF0123E0230F2D3768F1C0
:1018900026E8230F0296A11DB11D2093CF0180934E
:1018A000D0019093D101A093D201B093D301809144
:1018B000CB019091CC01A091CD01B091CE010196C8
:1018C000A11DB11D8093CB019093CC01A093CD01BC
:1018D000B093CE01BF91AF919F918F913F912F9186
:1018E0000F900FBE0F901F9018950196A11DB11D6E
:1018F000D4CF2FB7F8946091D0017091D10180912D
:10190000D2019091D3012FBF08958230910538F014
:10191000880F991F880F991F05970197F1F7089570
:10192000789483B7836083BF89B7816089BF82E081
:101930008EBD8EB581608EBD8FB581608FBD85B542
:10194000846085BD85B5806485BD87E886B91AB891
:1019500008951F93CF93DF93182FEB0161E041D0DF
:10196000209731F460E0812FDF91CF911F9175C0F6
:10197000CF3FD10511F461E0F6CFE12FF0E0E75958
:10198000FE4FE491E53069F0E73089F0E430A1F4EE
:101990008FB580688FBDDBBDCABDDF91CF911F9130
:1019A00008958FB580628FBDD9BDC8BDF6CF85B50E
:1019B000806285BDC3BDF1CFC038D105E4F6D2CF7A
:1019C000853041F0873049F0843051F48FB58F77FE
:1019D0008FBD08958FB58F7DFBCF85B58F7D85BD7C
:1019E0000895CF93DF9390E0FC01E058FE4F2491DF
:1019F00089569E4FFC0184918823C9F090E0880F9E
:101A0000991FFC01EE53FE4FA591B491FC01E854DF
:101A1000FE4FC591D49161110DC09FB7F8948C9180
:101A2000209582238C938881282328839FBFDF9170
:101A3000CF910895623051F49FB7F8943C91822F72
:101A4000809583238C93E8812E2BEFCF8FB7F8946A
:101A5000EC912E2B2C938FBFEACF1F93CF93DF9364
:101A6000282F30E0F901E759FE4F8491F901E05841
:101A7000FE4FD491F901E956FE4FC491CC23A1F059
:101A8000162F81119DDFEC2FF0E0EE0FFF1FE854C1
:101A9000FE4FA591B4918FB7F894EC91111108C045
:101AA000D095DE23DC938FBFDF91CF911F910895F6
:101AB000DE2BF8CFCF93DF93282F30E0F901E759E1
:101AC000FE4F8491F901E058FE4FD491F901E95697
:101AD000FE4FC491CC2399F0811172DFEC2FF0E01E
:101AE000EE0FFF1FE255FE4FA591B491EC91ED234F
:101AF00081E090E009F480E0DF91CF91089580E0EB
:101B000090E0FACFFC01918D228D892F90E0805CCE
:101B10009F4F821B91098F7399270895FC01918D26
:101B2000828D981731F0828DE80FF11D858D90E040
:101B300008958FEF9FEF0895FC01918D828D981786
:101B400061F0A28DAE0FBF2FB11D5D968C91928D6D
:101B50009F5F9F73928F90E008958FEF9FEF08959E
:101B6000FC01538D448D252F30E0842F90E0821BA3
:101B7000930B541710F0CF9608950197089584E0C1
:101B80009FE0892B39F080E090E0892B19F03CD15F
:101B9000811136C20895FC01A48DA80FB92FB11D83
:101BA000A35ABF4F2C91848D90E001968F73992793
:101BB000848FA689B7892C93A089B1898C9182746E
:101BC0008C93938D848D981306C00288F389E02D41
:101BD00080818F7D80830895CF93DF93EC01888D82
:101BE0008823B1F0AA89BB89E889F9898C9185FDA0
:101BF00003C0808186FD0CC00FB607FCF7CF8C9127
:101C000085FFF2CF808185FFEDCFCE01C4DFEACF23
:101C1000DF91CF910895EF92FF920F931F93CF938F
:101C2000DF93EC0181E0888F9B8D8C8D981319C018
:101C3000E889F989808185FF14C09FB7F894EE89FF
:101C4000FF896083E889F9898081827480839FBFDE
:101C500081E090E0DF91CF911F910F91FF90EF9085
:101C60000895F62E0B8D10E00F5F1F4F0F73112795
:101C7000E02E8C8D8E110BC00FB607FCFACFE889D1
:101C8000F989808185FFF5CFCE0185DFF2CFEB8D1D
:101C9000EC0FFD2FF11DE35AFF4FF0829FB7F89430
:101CA0000B8FEA89FB8980818062D0CFCF92DF924F
:101CB000EF92FF921F93CF93DF93EC016A017B01B8
:101CC000122FE889F98982E08083C11481EED80659
:101CD000E104F10499F060E079E08DE390E0A70180
:101CE0009601FED021503109410951095695479579
:101CF00037952795211580E1380790F0E889F98913
:101D0000108260E874E88EE190E0A7019601E8D0C7
:101D10002150310941095109569547953795279525
:101D2000EC85FD853083EE85FF852083188E106855
:101D3000EC89FD891083EA89FB8980818869808329
:101D4000EA89FB8980818F7D8083DF91CF911F910C
:101D5000FF90EF90DF90CF9008951F920F920FB6F3
:101D60000F9211242F938F939F93EF93FF93E09102
:101D7000E401F091E5018081E091EA01F091EB014D
:101D800082FD1BC090818091ED018F5F8F73209148
:101D9000EE01821741F0E091ED01F0E0EC52FE4FD0
:101DA000958F8093ED01FF91EF919F918F912F91EE
:101DB0000F900FBE0F901F9018958081F4CF1F9247
:101DC0000F920FB60F9211242F933F934F935F936F
:101DD0006F937F938F939F93AF93BF93EF93FF93F3
:101DE00084ED91E0D8DEFF91EF91BF91AF919F918B
:101DF0008F917F916F915F914F913F912F910F90B4
:101E00000FBE0F901F90189584ED91E07BDE21E0CE
:101E1000892B09F420E0822F0895E4EDF1E013828C
:101E2000128288EE93E0A0E0B0E084839583A683DD
:101E3000B7838AE690E09183808380E490E0958781
:101E4000848729E230E0378726872BE230E0318B28
:101E5000208B2AE230E0338B228B958B848B8CE2B3
:101E600090E0978B868B118E128E138E148E0895B0
:101E7000AF92BF92CF92DF92EF92FF920F931F9398
:101E8000CF93DF936C017B018B01040F151FEB01D6
:101E90005E01AE18BF08C017D10759F06991D6018D
:101EA000ED91FC910190F081E02DC6010995892BFF
:101EB00079F7C501DF91CF911F910F91FF90EF90BE
:101EC000DF90CF90BF90AF900895089529DDFDDF9A
:101ED00046D2CFEBDDE0F6D42097E9F350DEFBCF1E
:101EE000A1E21A2EAA1BBB1BFD010DC0AA1FBB1F1E
:101EF000EE1FFF1FA217B307E407F50720F0A21B90
:101F0000B30BE40BF50B661F771F881F991F1A94FC
:101F100069F760957095809590959B01AC01BD0126
:101F2000CF010895EE0FFF1F0590F491E02D099465
:041F3000F894FFCF53
:101F34000100AC0B0000000000000B0E380FB00DC8
:081F4400EC0D820D9C0D8E0DC9
:00000001FF
